:100000000C9456000C9475000C9475000C947500BB
:100010000C9475000C9475000C9475000C9475008C
:100020000C9475000C9475000C9475000C9475007C
:100030000C9475000C9475000C9475000C9475006C
:100040000C9475000C9475000C9475000C9475005C
:100050000C9475000C9475000C9475000C9475004C
:100060000C9475000C9475000C9475000C9475003C
:100070000C9475000C9475000C9475000C9475002C
:100080000C9475000C9475000C947500BA00C100B6
:100090006C012401360148015A01D500B1019801D3
:1000A000AC019C01A001A401A801B10111241FBE53
:1000B000CFEFD0E4DEBFCDBF11E0A0E0B1E0E6EECF
:1000C000F3E000E00BBF02C007900D92AE30B10725
:1000D000D9F721E0AEE0B1E001C01D92A331B20733
:1000E000E1F70E94B6010C94F1010C940000CF934B
:1000F000DF9300D01F92CDB7DEB789837B836A83FD
:1001000089818A3031F48A819B81BC018DE00E9413
:10011000770080EC90E0FC018081882F90E0807275
:100120009927892BB1F386EC90E02981FC0120838B
:1001300080E090E00F900F900F90DF91CF910895A5
:10014000CF93DF93CDB7DEB780911101909112016B
:10015000CC01A0E0B0E040E050E027E030E0841BBC
:10016000950B2817390708F4C9C08A5B9F4FFC011B
:100170000C94E80181E090E09093120180931101CA
:10018000C2C010920F0180911001882339F087E0DE
:1001900090E09093120180931101B5C082E090E04D
:1001A0009093120180931101AEC0809110018823B9
:1001B00009F043C080910F018F5F80930F01809100
:1001C0000F01813039F483E090E090931201809325
:1001D000110199C080910F01823039F484E090E0E0
:1001E00090931201809311018EC080910F01833092
:1001F00039F485E090E0909312018093110183C05F
:1002000080910F01843039F486E090E090931201E0
:100210008093110178C080910F01853039F482E01C
:1002200090E090931201809311016DC081E090E005
:10023000909312018093110166C087E090E0909343
:100240001201809311015FC080911001882339F061
:1002500087E090E0909312018093110154C083E0F5
:1002600090E090931201809311014DC08091100194
:10027000882339F087E090E0909312018093110178
:1002800042C084E090E090931201809311013BC042
:1002900080911001882339F087E090E0909312015B
:1002A0008093110130C085E090E09093120180931B
:1002B000110129C080911001882339F087E090E076
:1002C00090931201809311011EC086E090E09093FC
:1002D00012018093110117C080911001882339F019
:1002E00087E090E090931201809311010CC082E0AE
:1002F00090E0909312018093110105C010921201B9
:100300001092110100008091110190911201CC0115
:10031000A0E0B0E040E050E027E030E0841B950B27
:1003200028173907E0F0825B9F4FFC010C94E8012D
:100330008FE780930E0116C081E480930E0112C0F6
:1003400082E280930E010EC084E180930E010AC008
:1003500088E080930E0106C010920E0103C00000D9
:1003600001C000000000DF91CF910895CF93DF938B
:10037000CDB7DEB781E290E0FC01108282E290E02E
:100380002FEFFC01208387E290E02FEFFC01208318
:1003900088E290E0FC01108210920F0110920E0191
:1003A00080E290E0FC018081882F90E081709927A5
:1003B00021E0892B09F020E0822F809310010E9418
:1003C000A00088E290E020910E01FC012083E8CF9C
:1003D000EE0FFF1F0024001C0BBE0790F691E02DCE
:0603E0000994F894FFCF20
:0E03E600000000020000000077000000000090
:00000001FF
