:100000000C9446000C945D000C945D000C945D0013
:100010000C945D000C945D000C945D000C945D00EC
:100020000C945D000C945D000C945D000C945D00DC
:100030000C945D000C945D000C945D000C945D00CC
:100040000C945D000C945D000C945D000C945D00BC
:100050000C945D000C945D000C945D000C945D00AC
:100060000C945D000C945D000C945D000C945D009C
:100070000C945D000C945D000C945D000C945D008C
:100080000C945D000C945D000C945D0011241FBE67
:10009000CFEFD0E4DEBFCDBF11E0A0E0B1E0EEEDE8
:1000A000F1E000E00BBF02C007900D92AE30B10747
:1000B000D9F70E9488000C94ED000C940000CF93B7
:1000C000DF9300D01F92CDB7DEB789837B836A832D
:1000D00089818A3031F48A819B81BC018DE00E9444
:1000E0005F0080EC90E0FC018081882F90E08072BE
:1000F0009927892BB1F386EC90E02981FC012083BC
:1001000080E090E00F900F900F90DF91CF910895D5
:10011000CF93DF9300D0CDB7DEB781E290E0FC0152
:10012000108282E290E02FEFFC01208387E290E0D2
:100130002FEFFC01208388E290E0FC0110821A82FC
:10014000198280E290E0FC0180818A8319828A8191
:10015000813019F08A81823031F480E2898389818B
:100160008064898334C08A81833019F08A81843025
:1001700031F480E3898389818064898328C08A81FE
:10018000853019F08A81863019F488E389831FC08D
:100190008A81873030F08A818A3018F48CE3898331
:1001A00016C08A818A3030F08A818D3018F48EE34F
:1001B00089830DC08A818D3030F08A81803118F4B6
:1001C0008FE3898304C0198289818064898388E2EE
:0E01D00090E02981FC012083B4CFF894FFCF8A
:0E01DE0000000002000000005F0000000000B2
:00000001FF
